{
  "address": "0x461A1001D303F83eB02A921016C8A6beD0469e89",
  "abi": [
    {
      "inputs": [],
      "name": "defaultInitialGameState",
      "outputs": [
        {
          "internalType": "bytes",
          "name": "",
          "type": "bytes"
        }
      ],
      "stateMutability": "pure",
      "type": "function"
    },
    {
      "inputs": [
        {
          "components": [
            {
              "internalType": "uint256",
              "name": "gameId",
              "type": "uint256"
            },
            {
              "internalType": "uint256",
              "name": "nonce",
              "type": "uint256"
            },
            {
              "internalType": "bytes",
              "name": "state",
              "type": "bytes"
            }
          ],
          "internalType": "struct IGameJutsuRules.GameState",
          "name": "_gameState",
          "type": "tuple"
        },
        {
          "internalType": "uint8",
          "name": "playerId",
          "type": "uint8"
        },
        {
          "internalType": "bytes",
          "name": "_move",
          "type": "bytes"
        }
      ],
      "name": "isValidMove",
      "outputs": [
        {
          "internalType": "bool",
          "name": "",
          "type": "bool"
        }
      ],
      "stateMutability": "pure",
      "type": "function"
    },
    {
      "inputs": [
        {
          "components": [
            {
              "internalType": "uint256",
              "name": "gameId",
              "type": "uint256"
            },
            {
              "internalType": "uint256",
              "name": "nonce",
              "type": "uint256"
            },
            {
              "internalType": "bytes",
              "name": "state",
              "type": "bytes"
            }
          ],
          "internalType": "struct IGameJutsuRules.GameState",
          "name": "_gameState",
          "type": "tuple"
        },
        {
          "internalType": "uint8",
          "name": "playerId",
          "type": "uint8"
        },
        {
          "internalType": "bytes",
          "name": "_move",
          "type": "bytes"
        }
      ],
      "name": "transition",
      "outputs": [
        {
          "components": [
            {
              "internalType": "uint256",
              "name": "gameId",
              "type": "uint256"
            },
            {
              "internalType": "uint256",
              "name": "nonce",
              "type": "uint256"
            },
            {
              "internalType": "bytes",
              "name": "state",
              "type": "bytes"
            }
          ],
          "internalType": "struct IGameJutsuRules.GameState",
          "name": "",
          "type": "tuple"
        }
      ],
      "stateMutability": "pure",
      "type": "function"
    }
  ],
  "bytecode": "608060405234801561001057600080fd5b50610670806100206000396000f3fe608060405234801561001057600080fd5b50600436106100415760003560e01c80630bf9ae69146100465780634ace4cfb1461006e5780638f5afe2f1461008e575b600080fd5b6100596100543660046102df565b6100a3565b60405190151581526020015b60405180910390f35b61008161007c3660046102df565b610135565b60405161006591906103d0565b61009661021b565b6040516100659190610407565b6000806100b36040870187610421565b8101906100c091906104e2565b905060006100d084860186610576565b905080600060ff88166100e8600260208c0135610591565b1490508080156100fa57508360200151155b801561010857508360400151155b80156101175750600960ff8316105b80156101285750610128848361029e565b9998505050505050505050565b61015960405180606001604052806000815260200160008152602001606081525090565b60006101686040870187610421565b81019061017591906104e2565b9050600061018584860186610576565b905061019660026020890135610591565b6101a19060016105b3565b825160ff8316600981106101b7576101b76105d4565b60ff9092166020928302919091015260408051606081019091528835815290818101906101e8908a013560016105b3565b8152602001836040516020016101fe91906105ea565b60408051601f198184030181529190529052979650505050505050565b6040805161018081018252600060608281018281526080840183905260a0840183905260c0840183905260e0840183905261010084018390526101208401839052610140840183905261016084018390528352602080840183905283850192909252925161028a9291016105ea565b604051602081830303815290604052905090565b815160009060ff8316600981106102b7576102b76105d4565b602002015160ff161590505b92915050565b803560ff811681146102da57600080fd5b919050565b600080600080606085870312156102f557600080fd5b843567ffffffffffffffff8082111561030d57600080fd5b908601906060828903121561032157600080fd5b819550610330602088016102c9565b9450604087013591508082111561034657600080fd5b818701915087601f83011261035a57600080fd5b81358181111561036957600080fd5b88602082850101111561037b57600080fd5b95989497505060200194505050565b6000815180845260005b818110156103b057602081850181015186830182015201610394565b506000602082860101526020601f19601f83011685010191505092915050565b602081528151602082015260208201516040820152600060408301516060808401526103ff608084018261038a565b949350505050565b60208152600061041a602083018461038a565b9392505050565b6000808335601e1984360301811261043857600080fd5b83018035915067ffffffffffffffff82111561045357600080fd5b60200191503681900382131561046857600080fd5b9250929050565b634e487b7160e01b600052604160045260246000fd5b6040516060810167ffffffffffffffff811182821017156104a8576104a861046f565b60405290565b604051610120810167ffffffffffffffff811182821017156104a8576104a861046f565b803580151581146102da57600080fd5b600061016082840312156104f557600080fd5b6104fd610485565b83601f84011261050c57600080fd5b6105146104ae565b8061012085018681111561052757600080fd5b855b818110156105485761053a816102c9565b845260209384019301610529565b50818452610555816104d2565b602085015250505061056a61014084016104d2565b60408201529392505050565b60006020828403121561058857600080fd5b61041a826102c9565b6000826105ae57634e487b7160e01b600052601260045260246000fd5b500690565b808201808211156102c357634e487b7160e01b600052601160045260246000fd5b634e487b7160e01b600052603260045260246000fd5b81516101608201908260005b600981101561061857825160ff168252602092830192909101906001016105f6565b505050602083015115156101208301526040909201511515610140909101529056fea2646970667358221220bfc15678647b9411a1df6e790ab23807f350589332928d1b73248b0a3612ccd964736f6c63430008110033",
  "bytecodeSha1": "5107d50d36639dc50eba52537a377485a1fea568",
  "compiler": {
    "evm_version": "istanbul",
    "optimizer": {
      "enabled": true,
      "runs": 200
    },
    "version": "0.8.17+commit.8df45f5f"
  },
  "contractName": "TicTacToeRules",
  "language": "Solidity",
  "natspec": {
    "author": "Gene A. Tsvigun",
    "details": "The state encodes the board as a 3x3 array of uint8s with 0 for empty, 1 for X, and 2 for Oexplicitly keeping wins as `bool crossesWin` and `bool noughtsWin`",
    "kind": "dev",
    "methods": {},
    "notice": "Our take on the classic game, rules defined on-chain to never be checkedexcept by the arbiter when a dispute arises.ETHOnline2022 submission by ChainHackers",
    "title": "TicTacToe Rules",
    "version": 1
  },
  "opcodes": "PUSH1 0x80 PUSH1 0x40 MSTORE CALLVALUE DUP1 ISZERO PUSH2 0x10 JUMPI PUSH1 0x0 DUP1 REVERT JUMPDEST POP PUSH1 0x4 CALLDATASIZE LT PUSH2 0x41 JUMPI PUSH1 0x0 CALLDATALOAD PUSH1 0xE0 SHR DUP1 PUSH4 0xBF9AE69 EQ PUSH2 0x46 JUMPI DUP1 PUSH4 0x4ACE4CFB EQ PUSH2 0x6E JUMPI DUP1 PUSH4 0x8F5AFE2F EQ PUSH2 0x8E JUMPI JUMPDEST PUSH1 0x0 DUP1 REVERT JUMPDEST PUSH2 0x59 PUSH2 0x54 CALLDATASIZE PUSH1 0x4 PUSH2 0x2DF JUMP JUMPDEST PUSH2 0xA3 JUMP JUMPDEST PUSH1 0x40 MLOAD SWAP1 ISZERO ISZERO DUP2 MSTORE PUSH1 0x20 ADD JUMPDEST PUSH1 0x40 MLOAD DUP1 SWAP2 SUB SWAP1 RETURN JUMPDEST PUSH2 0x81 PUSH2 0x7C CALLDATASIZE PUSH1 0x4 PUSH2 0x2DF JUMP JUMPDEST PUSH2 0x135 JUMP JUMPDEST PUSH1 0x40 MLOAD PUSH2 0x65 SWAP2 SWAP1 PUSH2 0x3D0 JUMP JUMPDEST PUSH2 0x96 PUSH2 0x21B JUMP JUMPDEST PUSH1 0x40 MLOAD PUSH2 0x65 SWAP2 SWAP1 PUSH2 0x407 JUMP JUMPDEST PUSH1 0x0 DUP1 PUSH2 0xB3 PUSH1 0x40 DUP8 ADD DUP8 PUSH2 0x421 JUMP JUMPDEST DUP2 ADD SWAP1 PUSH2 0xC0 SWAP2 SWAP1 PUSH2 0x4E2 JUMP JUMPDEST SWAP1 POP PUSH1 0x0 PUSH2 0xD0 DUP5 DUP7 ADD DUP7 PUSH2 0x576 JUMP JUMPDEST SWAP1 POP DUP1 PUSH1 0x0 PUSH1 0xFF DUP9 AND PUSH2 0xE8 PUSH1 0x2 PUSH1 0x20 DUP13 ADD CALLDATALOAD PUSH2 0x591 JUMP JUMPDEST EQ SWAP1 POP DUP1 DUP1 ISZERO PUSH2 0xFA JUMPI POP DUP4 PUSH1 0x20 ADD MLOAD ISZERO JUMPDEST DUP1 ISZERO PUSH2 0x108 JUMPI POP DUP4 PUSH1 0x40 ADD MLOAD ISZERO JUMPDEST DUP1 ISZERO PUSH2 0x117 JUMPI POP PUSH1 0x9 PUSH1 0xFF DUP4 AND LT JUMPDEST DUP1 ISZERO PUSH2 0x128 JUMPI POP PUSH2 0x128 DUP5 DUP4 PUSH2 0x29E JUMP JUMPDEST SWAP10 SWAP9 POP POP POP POP POP POP POP POP POP JUMP JUMPDEST PUSH2 0x159 PUSH1 0x40 MLOAD DUP1 PUSH1 0x60 ADD PUSH1 0x40 MSTORE DUP1 PUSH1 0x0 DUP2 MSTORE PUSH1 0x20 ADD PUSH1 0x0 DUP2 MSTORE PUSH1 0x20 ADD PUSH1 0x60 DUP2 MSTORE POP SWAP1 JUMP JUMPDEST PUSH1 0x0 PUSH2 0x168 PUSH1 0x40 DUP8 ADD DUP8 PUSH2 0x421 JUMP JUMPDEST DUP2 ADD SWAP1 PUSH2 0x175 SWAP2 SWAP1 PUSH2 0x4E2 JUMP JUMPDEST SWAP1 POP PUSH1 0x0 PUSH2 0x185 DUP5 DUP7 ADD DUP7 PUSH2 0x576 JUMP JUMPDEST SWAP1 POP PUSH2 0x196 PUSH1 0x2 PUSH1 0x20 DUP10 ADD CALLDATALOAD PUSH2 0x591 JUMP JUMPDEST PUSH2 0x1A1 SWAP1 PUSH1 0x1 PUSH2 0x5B3 JUMP JUMPDEST DUP3 MLOAD PUSH1 0xFF DUP4 AND PUSH1 0x9 DUP2 LT PUSH2 0x1B7 JUMPI PUSH2 0x1B7 PUSH2 0x5D4 JUMP JUMPDEST PUSH1 0xFF SWAP1 SWAP3 AND PUSH1 0x20 SWAP3 DUP4 MUL SWAP2 SWAP1 SWAP2 ADD MSTORE PUSH1 0x40 DUP1 MLOAD PUSH1 0x60 DUP2 ADD SWAP1 SWAP2 MSTORE DUP9 CALLDATALOAD DUP2 MSTORE SWAP1 DUP2 DUP2 ADD SWAP1 PUSH2 0x1E8 SWAP1 DUP11 ADD CALLDATALOAD PUSH1 0x1 PUSH2 0x5B3 JUMP JUMPDEST DUP2 MSTORE PUSH1 0x20 ADD DUP4 PUSH1 0x40 MLOAD PUSH1 0x20 ADD PUSH2 0x1FE SWAP2 SWAP1 PUSH2 0x5EA JUMP JUMPDEST PUSH1 0x40 DUP1 MLOAD PUSH1 0x1F NOT DUP2 DUP5 SUB ADD DUP2 MSTORE SWAP2 SWAP1 MSTORE SWAP1 MSTORE SWAP8 SWAP7 POP POP POP POP POP POP POP JUMP JUMPDEST PUSH1 0x40 DUP1 MLOAD PUSH2 0x180 DUP2 ADD DUP3 MSTORE PUSH1 0x0 PUSH1 0x60 DUP3 DUP2 ADD DUP3 DUP2 MSTORE PUSH1 0x80 DUP5 ADD DUP4 SWAP1 MSTORE PUSH1 0xA0 DUP5 ADD DUP4 SWAP1 MSTORE PUSH1 0xC0 DUP5 ADD DUP4 SWAP1 MSTORE PUSH1 0xE0 DUP5 ADD DUP4 SWAP1 MSTORE PUSH2 0x100 DUP5 ADD DUP4 SWAP1 MSTORE PUSH2 0x120 DUP5 ADD DUP4 SWAP1 MSTORE PUSH2 0x140 DUP5 ADD DUP4 SWAP1 MSTORE PUSH2 0x160 DUP5 ADD DUP4 SWAP1 MSTORE DUP4 MSTORE PUSH1 0x20 DUP1 DUP5 ADD DUP4 SWAP1 MSTORE DUP4 DUP6 ADD SWAP3 SWAP1 SWAP3 MSTORE SWAP3 MLOAD PUSH2 0x28A SWAP3 SWAP2 ADD PUSH2 0x5EA JUMP JUMPDEST PUSH1 0x40 MLOAD PUSH1 0x20 DUP2 DUP4 SUB SUB DUP2 MSTORE SWAP1 PUSH1 0x40 MSTORE SWAP1 POP SWAP1 JUMP JUMPDEST DUP2 MLOAD PUSH1 0x0 SWAP1 PUSH1 0xFF DUP4 AND PUSH1 0x9 DUP2 LT PUSH2 0x2B7 JUMPI PUSH2 0x2B7 PUSH2 0x5D4 JUMP JUMPDEST PUSH1 0x20 MUL ADD MLOAD PUSH1 0xFF AND ISZERO SWAP1 POP JUMPDEST SWAP3 SWAP2 POP POP JUMP JUMPDEST DUP1 CALLDATALOAD PUSH1 0xFF DUP2 AND DUP2 EQ PUSH2 0x2DA JUMPI PUSH1 0x0 DUP1 REVERT JUMPDEST SWAP2 SWAP1 POP JUMP JUMPDEST PUSH1 0x0 DUP1 PUSH1 0x0 DUP1 PUSH1 0x60 DUP6 DUP8 SUB SLT ISZERO PUSH2 0x2F5 JUMPI PUSH1 0x0 DUP1 REVERT JUMPDEST DUP5 CALLDATALOAD PUSH8 0xFFFFFFFFFFFFFFFF DUP1 DUP3 GT ISZERO PUSH2 0x30D JUMPI PUSH1 0x0 DUP1 REVERT JUMPDEST SWAP1 DUP7 ADD SWAP1 PUSH1 0x60 DUP3 DUP10 SUB SLT ISZERO PUSH2 0x321 JUMPI PUSH1 0x0 DUP1 REVERT JUMPDEST DUP2 SWAP6 POP PUSH2 0x330 PUSH1 0x20 DUP9 ADD PUSH2 0x2C9 JUMP JUMPDEST SWAP5 POP PUSH1 0x40 DUP8 ADD CALLDATALOAD SWAP2 POP DUP1 DUP3 GT ISZERO PUSH2 0x346 JUMPI PUSH1 0x0 DUP1 REVERT JUMPDEST DUP2 DUP8 ADD SWAP2 POP DUP8 PUSH1 0x1F DUP4 ADD SLT PUSH2 0x35A JUMPI PUSH1 0x0 DUP1 REVERT JUMPDEST DUP2 CALLDATALOAD DUP2 DUP2 GT ISZERO PUSH2 0x369 JUMPI PUSH1 0x0 DUP1 REVERT JUMPDEST DUP9 PUSH1 0x20 DUP3 DUP6 ADD ADD GT ISZERO PUSH2 0x37B JUMPI PUSH1 0x0 DUP1 REVERT JUMPDEST SWAP6 SWAP9 SWAP5 SWAP8 POP POP PUSH1 0x20 ADD SWAP5 POP POP POP JUMP JUMPDEST PUSH1 0x0 DUP2 MLOAD DUP1 DUP5 MSTORE PUSH1 0x0 JUMPDEST DUP2 DUP2 LT ISZERO PUSH2 0x3B0 JUMPI PUSH1 0x20 DUP2 DUP6 ADD DUP2 ADD MLOAD DUP7 DUP4 ADD DUP3 ADD MSTORE ADD PUSH2 0x394 JUMP JUMPDEST POP PUSH1 0x0 PUSH1 0x20 DUP3 DUP7 ADD ADD MSTORE PUSH1 0x20 PUSH1 0x1F NOT PUSH1 0x1F DUP4 ADD AND DUP6 ADD ADD SWAP2 POP POP SWAP3 SWAP2 POP POP JUMP JUMPDEST PUSH1 0x20 DUP2 MSTORE DUP2 MLOAD PUSH1 0x20 DUP3 ADD MSTORE PUSH1 0x20 DUP3 ADD MLOAD PUSH1 0x40 DUP3 ADD MSTORE PUSH1 0x0 PUSH1 0x40 DUP4 ADD MLOAD PUSH1 0x60 DUP1 DUP5 ADD MSTORE PUSH2 0x3FF PUSH1 0x80 DUP5 ADD DUP3 PUSH2 0x38A JUMP JUMPDEST SWAP5 SWAP4 POP POP POP POP JUMP JUMPDEST PUSH1 0x20 DUP2 MSTORE PUSH1 0x0 PUSH2 0x41A PUSH1 0x20 DUP4 ADD DUP5 PUSH2 0x38A JUMP JUMPDEST SWAP4 SWAP3 POP POP POP JUMP JUMPDEST PUSH1 0x0 DUP1 DUP4 CALLDATALOAD PUSH1 0x1E NOT DUP5 CALLDATASIZE SUB ADD DUP2 SLT PUSH2 0x438 JUMPI PUSH1 0x0 DUP1 REVERT JUMPDEST DUP4 ADD DUP1 CALLDATALOAD SWAP2 POP PUSH8 0xFFFFFFFFFFFFFFFF DUP3 GT ISZERO PUSH2 0x453 JUMPI PUSH1 0x0 DUP1 REVERT JUMPDEST PUSH1 0x20 ADD SWAP2 POP CALLDATASIZE DUP2 SWAP1 SUB DUP3 SGT ISZERO PUSH2 0x468 JUMPI PUSH1 0x0 DUP1 REVERT JUMPDEST SWAP3 POP SWAP3 SWAP1 POP JUMP JUMPDEST PUSH4 0x4E487B71 PUSH1 0xE0 SHL PUSH1 0x0 MSTORE PUSH1 0x41 PUSH1 0x4 MSTORE PUSH1 0x24 PUSH1 0x0 REVERT JUMPDEST PUSH1 0x40 MLOAD PUSH1 0x60 DUP2 ADD PUSH8 0xFFFFFFFFFFFFFFFF DUP2 GT DUP3 DUP3 LT OR ISZERO PUSH2 0x4A8 JUMPI PUSH2 0x4A8 PUSH2 0x46F JUMP JUMPDEST PUSH1 0x40 MSTORE SWAP1 JUMP JUMPDEST PUSH1 0x40 MLOAD PUSH2 0x120 DUP2 ADD PUSH8 0xFFFFFFFFFFFFFFFF DUP2 GT DUP3 DUP3 LT OR ISZERO PUSH2 0x4A8 JUMPI PUSH2 0x4A8 PUSH2 0x46F JUMP JUMPDEST DUP1 CALLDATALOAD DUP1 ISZERO ISZERO DUP2 EQ PUSH2 0x2DA JUMPI PUSH1 0x0 DUP1 REVERT JUMPDEST PUSH1 0x0 PUSH2 0x160 DUP3 DUP5 SUB SLT ISZERO PUSH2 0x4F5 JUMPI PUSH1 0x0 DUP1 REVERT JUMPDEST PUSH2 0x4FD PUSH2 0x485 JUMP JUMPDEST DUP4 PUSH1 0x1F DUP5 ADD SLT PUSH2 0x50C JUMPI PUSH1 0x0 DUP1 REVERT JUMPDEST PUSH2 0x514 PUSH2 0x4AE JUMP JUMPDEST DUP1 PUSH2 0x120 DUP6 ADD DUP7 DUP2 GT ISZERO PUSH2 0x527 JUMPI PUSH1 0x0 DUP1 REVERT JUMPDEST DUP6 JUMPDEST DUP2 DUP2 LT ISZERO PUSH2 0x548 JUMPI PUSH2 0x53A DUP2 PUSH2 0x2C9 JUMP JUMPDEST DUP5 MSTORE PUSH1 0x20 SWAP4 DUP5 ADD SWAP4 ADD PUSH2 0x529 JUMP JUMPDEST POP DUP2 DUP5 MSTORE PUSH2 0x555 DUP2 PUSH2 0x4D2 JUMP JUMPDEST PUSH1 0x20 DUP6 ADD MSTORE POP POP POP PUSH2 0x56A PUSH2 0x140 DUP5 ADD PUSH2 0x4D2 JUMP JUMPDEST PUSH1 0x40 DUP3 ADD MSTORE SWAP4 SWAP3 POP POP POP JUMP JUMPDEST PUSH1 0x0 PUSH1 0x20 DUP3 DUP5 SUB SLT ISZERO PUSH2 0x588 JUMPI PUSH1 0x0 DUP1 REVERT JUMPDEST PUSH2 0x41A DUP3 PUSH2 0x2C9 JUMP JUMPDEST PUSH1 0x0 DUP3 PUSH2 0x5AE JUMPI PUSH4 0x4E487B71 PUSH1 0xE0 SHL PUSH1 0x0 MSTORE PUSH1 0x12 PUSH1 0x4 MSTORE PUSH1 0x24 PUSH1 0x0 REVERT JUMPDEST POP MOD SWAP1 JUMP JUMPDEST DUP1 DUP3 ADD DUP1 DUP3 GT ISZERO PUSH2 0x2C3 JUMPI PUSH4 0x4E487B71 PUSH1 0xE0 SHL PUSH1 0x0 MSTORE PUSH1 0x11 PUSH1 0x4 MSTORE PUSH1 0x24 PUSH1 0x0 REVERT JUMPDEST PUSH4 0x4E487B71 PUSH1 0xE0 SHL PUSH1 0x0 MSTORE PUSH1 0x32 PUSH1 0x4 MSTORE PUSH1 0x24 PUSH1 0x0 REVERT JUMPDEST DUP2 MLOAD PUSH2 0x160 DUP3 ADD SWAP1 DUP3 PUSH1 0x0 JUMPDEST PUSH1 0x9 DUP2 LT ISZERO PUSH2 0x618 JUMPI DUP3 MLOAD PUSH1 0xFF AND DUP3 MSTORE PUSH1 0x20 SWAP3 DUP4 ADD SWAP3 SWAP1 SWAP2 ADD SWAP1 PUSH1 0x1 ADD PUSH2 0x5F6 JUMP JUMPDEST POP POP POP PUSH1 0x20 DUP4 ADD MLOAD ISZERO ISZERO PUSH2 0x120 DUP4 ADD MSTORE PUSH1 0x40 SWAP1 SWAP3 ADD MLOAD ISZERO ISZERO PUSH2 0x140 SWAP1 SWAP2 ADD MSTORE SWAP1 JUMP INVALID LOG2 PUSH5 0x6970667358 0x22 SLT KECCAK256 0xBF 0xC1 JUMP PUSH25 0x647B9411A1DF6E790AB23807F350589332928D1B73248B0A36 SLT 0xCC 0xD9 PUSH5 0x736F6C6343 STOP ADDMOD GT STOP CALLER ",
  "sha1": "d9261e7cf5ffeb7cf2f04b769681ea9eab5e241f",
  "source": "/*\n  ________                           ____.       __\n /  _____/_____    _____   ____     |    |__ ___/  |_  ________ __\n/   \\  ___\\__  \\  /     \\_/ __ \\    |    |  |  \\   __\\/  ___/  |  \\\n\\    \\_\\  \\/ __ \\|  Y Y  \\  ___//\\__|    |  |  /|  |  \\___ \\|  |  /\n \\______  (____  /__|_|  /\\___  >________|____/ |__| /____  >____/\n        \\/     \\/      \\/     \\/                          \\/\nhttps://gamejutsu.app\n*/\n// SPDX-License-Identifier: MIT\npragma solidity ^0.8.0;\n\nimport \"../../interfaces/IGameJutsuRules.sol\";\n\n/**\n    @title TicTacToe Rules\n    @notice Our take on the classic game, rules defined on-chain to never be checked\n    @notice except by the arbiter when a dispute arises.\n    @notice ETHOnline2022 submission by ChainHackers\n    @author Gene A. Tsvigun\n    @dev The state encodes the board as a 3x3 array of uint8s with 0 for empty, 1 for X, and 2 for O\n    @dev explicitly keeping wins as `bool crossesWin` and `bool noughtsWin`\n  */\ncontract TicTacToeRules is IGameJutsuRules {\n\n    struct Board {\n        uint8[9] cells; //TODO pack it into a single uint16\n        bool crossesWin;\n        bool naughtsWin;\n    }\n\ntype Move is uint8;\n\n    function isValidMove(GameState calldata _gameState, uint8 playerId, bytes calldata _move) external pure override returns (bool) {\n        Board memory b = abi.decode(_gameState.state, (Board));\n        uint8 _m = abi.decode(_move, (uint8));\n        Move m = Move.wrap(_m);\n        bool playerIdMatchesTurn = _gameState.nonce % 2 == playerId;\n        return playerIdMatchesTurn && !b.crossesWin && !b.naughtsWin && isMoveWithinRange(m) && isCellEmpty(b, m);\n    }\n\n    function transition(GameState calldata _gameState, uint8 playerId, bytes calldata _move) external pure override returns (GameState memory) {\n        Board memory b = abi.decode(_gameState.state, (Board));\n        uint8 _m = abi.decode(_move, (uint8));\n        b.cells[_m] = uint8(1 + _gameState.nonce % 2);\n        return GameState(_gameState.gameId, _gameState.nonce + 1, abi.encode(b));\n    }\n\n    function defaultInitialGameState() external pure returns (bytes memory) {\n        return abi.encode(Board([0, 0, 0, 0, 0, 0, 0, 0, 0], false, false));\n    }\n\n    function isCellEmpty(Board memory b, Move move) private pure returns (bool) {\n        return b.cells[Move.unwrap(move)] == 0;\n    }\n\n\n    function isMoveWithinRange(Move move) private pure returns (bool){\n        return Move.unwrap(move) < 9;\n    }\n}",
  "sourcePath": "contracts/tic-tac-toe/TicTacToeRules.sol",
  "type": "contract"
}